:020000040800F2
:100000002805002005010008131600084910000803
:100010000F160008770A0008BF240008000000003F
:10002000000000000000000000000000CD180008E3
:100030007B0A000800000000B5170008151B000827
:100040001F0100081F0100081F0100081F01000810
:100050001F0100081F0100081F0100081F01000800
:100060001F0100081F0100081F0100081F010008F0
:100070001F0100081F0100081F0100081F010008E0
:100080001F0100081F0100081F0100081F010008D0
:100090001F0100081F0100081F0100081F010008C0
:1000A0001F0100081F0100081F0100081F010008B0
:1000B000B91D00081F0100081F0100081F010008EA
:1000C0001F0100081F0100081F0100081F01000890
:1000D0001F0100081F010008712200081F0100080D
:1000E0007D0A00081F0100081F010008DFF810D07A
:1000F00000F04EFC004800476D450008AFF300805B
:10010000280500200648804706480047FEE7FEE72E
:10011000FEE7FEE7FEE7FEE7FEE7FEE7FEE7FEE7B7
:10012000191B0008ED0000082DE9F0410024061B12
:10013000254671F1000605DA01240027D0EB0700FF
:1001400067EB0101161E73F1000605DA0027D2EBFA
:100150000702012567EB030300F01CFB86460E46F1
:1001600017469C46AC4204D00025D0EB050E65EB4B
:10017000010624B10020D2EB000760EB030C7046AF
:1001800031463A466346BDE8F081D2B201E000F85C
:10019000012B491EFBD270470022F6E710B513462B
:1001A0000A4604461946FFF7F0FF204610BD30B559
:1001B00004460020034600E05B1C934203D2E05C4F
:1001C000CD5C401BF8D030BDF0B480EA0102D40F02
:1001D0004200B2EB410F02D20246084611464A00E5
:1001E00042D0C30DDDB2C1F3C752AD1A202D35DAAE
:1001F000C1F3160141F4000204B15242C5F12006D8
:1002000002FA06F12A411044B3EBD05F23D0C4B107
:10021000012DA0EBC35009DCF0BC4FF0004202EA14
:10022000C352DBB200F5000000F00FBB400000F14C
:10023000807000EBC350A0F1807040EAD17049009B
:1002400009E0490841EAC071A0EBC35000F5000085
:10025000400800EBC350F0BC00F0EEBA614201224E
:1002600002EB4101001BF6E7F0BC704781F0004152
:10027000AAE780F00040A7E780EA010210B502F08B
:100280000043400022D04A001FD0010E01EB126152
:10029000C0F35600C2F3560240F4000042F40002DC
:1002A000A0FB022000047F39140400D0401C50EA57
:1002B000124001D44000491EC2B20C0604EBD0101B
:1002C000401C4008802A02D003E0002010BD20F02E
:1002D0000100002900DA0020184310BD30B480EA84
:1002E000010202F0004530F0004221F0004013D03E
:1002F00090B1C30DD40DC2F31601C0F31600E41A79
:1003000041F4000140F400027D34914201D3641CA9
:1003100000E04900002C02DA30BC002070474FF4A6
:1003200000000023914201D3891A034340084FEA99
:100330004101F7D151B1914202D14FF0004105E0A6
:1003400002D24FF0010101E06FF0010103EBC45054
:10035000284430BC00F070BA2DE9FE4F804681EA97
:100360000300C00F0C46009021F0004123F000452F
:10037000B8EB0200A94105D24046214690461C46F2
:100380000B46024623F00040104347D0270DC7F329
:100390000A00C3F30A510290401A019040286BDA18
:1003A000C3F3130040F4801B0098924620B1002351
:1003B000D2EB030A63EB0B0B01985946C0F14002E4
:1003C000504600F018FA06460D4650465946019A26
:1003D00000F020FA10EB08006141002487EA115276
:1003E00084EAE7731A4340D0009A62B3019A012A63
:1003F0004FEA075215DC001B61EB02014FF000428F
:1004000002EA0752CDE90042001C41F58011324654
:100410002B4600F057FA03B0BDE8F08F4046214666
:10042000F9E7001B61EB0201001C41F58013001885
:100430005B412018A2F5001747EB030140EAD57095
:10044000B6196D4111E06D084FEA360645EAC075F0
:100450004FEA0752001B61EB0201001C41F58011BD
:1004600049084FEA30000019514132462B4603B08B
:10047000BDE8F04F00F017BA0098012240000023B9
:10048000D0EB020263EBE073009821464FEAE07480
:10049000B8EB000061EB0401E9E783F000435BE7A0
:1004A00081F0004158E72DE9FE4F81EA030404F092
:1004B000004421F0004100944FF0000B23F0004372
:1004C00050EA01045ED052EA03045BD0C3F30A543D
:1004D000C1F30A552C44A4F2F3340194A0FB025456
:1004E000C1F3130141F48011C3F3130343F48013E8
:1004F00001FB024400FB034E840A970A44EA81543C
:1005000047EA8357A4FB076802958D0A05FB078518
:100510004FEA932C04FB0C542705029D4FEA065822
:1005200047EA1637B5EB08056EEB070C870E920EFF
:1005300047EA811742EA8312A7FB0201B6EB0B01DF
:1005400064EB00042B0D43EA0C335E1844EB1C50A3
:10055000DA465146E7FB0201C5F313044FEA0B33B9
:1005600043EA14534FEA0432019C43EA0603A4F120
:100570000C040294009CCDE900B400F0A3F903B090
:10058000BDE8F08F00200146F9E72DE9F04D81EA42
:10059000030404F0004B21F0004514464FF0000A1C
:1005A00023F0004150EA050220D054EA01021DD098
:1005B000C5F30A570246C5F31303C1F31300C1F391
:1005C0000A5640F4801543F48013A7EB0608101B6D
:1005D000D64608F2FD3873EB050002D308F1010896
:1005E00001E092185B41B8F1000F03DA00200146E8
:1005F000BDE8F08D00204FF48011064684460EE0E1
:10060000171B73EB050705D3121B63EB05030643AA
:100610004CEA010C49084FEA300092185B4150EA5D
:100620000107EDD152EA030012D082EA040083EA06
:100630000501084305D0101BAB4106D2012200235F
:1006400006E000224FF0004302E06FF00102531079
:100650001AEB06004CEB085110EB0A0041EB0B01C2
:10066000BDE8F04D00F01FB9C10F80EAE07008440A
:10067000CA079623002100F0E8B89623002211460D
:1006800000F0E3B800F0004220F00040C10DC0F3DC
:10069000160040F400007F2901DA002070479629F7
:1006A00003DCC1F19601C84001E096398840002A78
:1006B000F4D04042704720F00040C10DC0F3160056
:1006C00040F400007F2901DA00207047962903DCFE
:1006D000C1F19601C840704796398840704700F0D4
:1006E000004230F000400AD0C10D01F56071C0F346
:1006F000160042EA0151C20840071143704700202A
:100700000146704730B5041E71F1000404DB4FF060
:100710000044404264EB0101141E73F1000405DB48
:100720001C464FF00043524263EB04038B4208BF68
:10073000824230BD01F0004330B421F0004150EA64
:10074000010206D00A0DA2F56072C1F31301002A5E
:1007500002DC30BC00207047440F44EAC104C100F1
:10076000E01830BC00EBC25000F066B8002801DB96
:10077000C0F10040002901DBC1F100418142704716
:10078000002801DBC0F10040002901DBC1F100417C
:10079000884270472DE9F05F0546002092469B464F
:1007A00088460646814640241BE028464146474687
:1007B000224600F0FFF853465A46C01A914110D322
:1007C00011461846224600F016F82D1A67EB01086C
:1007D0004F4622460120002100F00DF817EB0009DA
:1007E0004E41201EA4F10104DFDC484631462A4672
:1007F0004346BDE8F09F202A04DB203A00FA02F1CC
:10080000002070479140C2F1200320FA03F31943FE
:1008100090407047202A06DBCB17203A41FA02F0BD
:1008200043EAE07306E041FA02F3D040C2F120024D
:1008300091400843194670470029A8BF7047401CE3
:10084000490008BF20F00100704710B4B0FA80FCE6
:1008500000FA0CF050EA010404BF10BC704749B123
:10086000CCF1200421FA04F411FA0CF118BF012193
:1008700021430843A3EB0C01CB1D4FEA00614FEA73
:10088000102042BF002010BC704700EBC350104442
:100890000029A4BF10BC7047401C490008BF20F0CD
:1008A000010010BC704710B5141E73F1000408DA83
:1008B000401C41F1000192185B411A4301D120F024
:1008C000010010BD2DE9F04D92469B4611B1B1FAE1
:1008D00081F202E0B0FA80F220329046FFF78BFFFF
:1008E00004460F4640EA0A0041EA0B0153465A46C5
:1008F000084313D0114653EA010019D0C8F1400251
:10090000504600F057F805460E46504659464246B6
:10091000FFF771FF084305D0012004E02046394667
:10092000BDE8F08D0020054346EAE0762C433743CE
:100930000A986305E40AA0EB08000022FD0A44EAD5
:1009400047540A3002D500200146E9E70105101995
:100950006941DDE9084500196941BDE8F04DA2E7AC
:1009600070B521F0004303430CD0C1F30A550024B5
:10097000D5EB040564EB0403D617AD1AB34102DBD3
:100980000020014670BD201841EB025170BD0000EF
:10099000064C074D06E0E06840F0010394E80700CC
:1009A00098471034AC42F6D3FFF7A4FBA8680008C0
:1009B000C8680008202A04DB203A21FA02F000214E
:1009C000704721FA02F3D040C2F12002914008435F
:1009D000194670472DE9F04D00231A461B1A8A412B
:1009E00003DB00200146BDE8F08DC1F30A52C1F3DC
:1009F000130141F480154FF0000BD10702D100180C
:100A00006D41521E0027044640F2FF11384601EBAB
:100A1000620A3E468046024600204FF48011FFF7EE
:100A2000C9FFC2197141BB1846EB0100B4EB030CBE
:100A300075EB000C04D3E41A65EB000517460E466F
:100A4000241908F101006D4180463428E3DDF919CD
:100A500046EB0600091BA84103D24FF0FF321346B4
:100A600001E0002213461BEB070046EB0A51BDE8EC
:100A7000F04DFFF718BF00BFFEE7704770B54FF4A9
:100A8000804000F09BF8012875D13B4A3B493C4827
:100A900003F0C8FD3B4A3C493C4800F0F0FA3C49B1
:100AA00037480068FFF7E8FB3A494860486802F0B9
:100AB00041FB0446374842683748B0F900103748D0
:100AC000B0F9000004F05AFF26182E48B0F90000D3
:100AD000FFF7CAFD044632480068FFF7CEFD054621
:100AE000214604F0F5FF304400B22E490880294920
:100AF000486802F01FFB0446264842682648B0F9C1
:100B000000102648B0F9000004F038FF26181D48F0
:100B1000B0F90000FFF7A8FD044623480068FFF77E
:100B2000ACFD0546214604F0D3FF304400B21F4916
:100B300008804FF4E1511B48B0F9000000F086FA3C
:100B4000184908804FF4E1511848B0F9000000F04E
:100B50007DFA164908801348B0F90010012000F012
:100B600087FF1248B0F90010022000F081FF4FF417
:100B7000804000F01DF870BD3400002030000020DF
:100B80002C00002042000020400000203E000020F9
:100B900000002041E80000204C0000204A00002016
:100BA000540000204E00002058000020500000207B
:100BB000014908607047000014040140014600200C
:100BC0000022074B1B6803EA0102054B14331B6824
:100BD0000B4013B10AB1012000E000207047000073
:100BE00000040140002123498279002A3AD00A46B4
:100BF000126803689A430B461A600A1D126803685C
:100C00009A430B1D1A60027911440A6803681A435B
:100C10000A60184A0832126803689A43154B083371
:100C20001A601A1D126803689A43124B0C331A603B
:100C30004279102A0ED11A1F126803681A430D4B0D
:100C400008331A601A1D126803681A43094B0C33E3
:100C50001A600DE00749427911440A6803681A4393
:100C60000A6005E0027911440A6803689A430A6041
:100C7000704700000004014000B587B00121022048
:100C800000F09AFD0121042000F0A6FD01210420BE
:100C900000F092FD0121082000F09EFD28208DF833
:100CA0001B00C020ADF8180003208DF81A0006A91B
:100CB000324800F0C9F806A9314800F0C5F8002014
:100CC000ADF81200ADF80E004FF6FF70ADF8100051
:100CD0000020ADF80C008DF8140003A9294801F09C
:100CE00037FA684601F038F90020ADF800000A2014
:100CF000ADF808000020ADF806006946214801F073
:100D0000D5F80420ADF800000A20ADF80800002056
:100D1000ADF8060069461B4801F0C8F80020ADF8A0
:100D200000000A20ADF808000020ADF80600694672
:100D3000154801F0BBF80420ADF800000A20ADF81A
:100D400008000020ADF8060069460F4801F0AEF833
:100D500000231A4603210B4801F073F800231A46BA
:100D60000321094801F06DF80121064801F04EF811
:100D70000121054801F04AF807B000BD0008014014
:100D8000000C014000040040000800401FB5012194
:100D9000082000F021FD48208DF80F004FF480401E
:100DA000ADF80C0003208DF80E0003A9154800F0E3
:100DB0004BF80121084600F00FFD0E21012000F044
:100DC00023F84FF48040019001208DF80A000020A4
:100DD0008DF808000C208DF8090001A8FFF702FF2C
:100DE0004FF4A06000F04EFC28208DF80000012098
:100DF0008DF803008DF801008DF80200684600F0C0
:100E000009FC1FBD000C014030B500228B071C0FF0
:100E10000F2303FA04F20B4B8C1053F82430934346
:100E2000084C8D1044F8253023468C1053F824309C
:100E30008C07240F00FA04F42343024C8D1044F86D
:100E4000253030BD080001402DE9F0410246002563
:100E50000026002000230024002791F803C00CF096
:100E60000F0591F803C00CF0100CBCF1000F03D07B
:100E700091F802C04CEA050591F800C0BCF1000FE2
:100E800031D0146800202BE04FF0010C0CFA00F375
:100E9000B1F800C00CEA03069E4220D183004FF057
:100EA0000F0C0CFA03F7BC4305FA03FC4CEA0404EC
:100EB00091F803C0BCF1280F06D14FF0010C0CFAD9
:100EC00000FCC2F814C00AE091F803C0BCF1480F5E
:100ED00005D14FF0010C0CFA00FCC2F810C0401C08
:100EE0000828D1D31460B1F800C0BCF1FF0F34DD85
:100EF000546800202EE000F1080C4FF0010808FAB9
:100F00000CF3B1F800C00CEA03069E4221D1830025
:100F10004FF00F0C0CFA03F7BC4305FA03FC4CEA44
:100F2000040491F803C0BCF1280F05D100F1080CAE
:100F300008FA0CF8C2F8148091F803C0BCF1480F0D
:100F400007D100F1080C4FF0010808FA0CF8C2F8BC
:100F50001080401C0828CED35460BDE8F08100000A
:100F6000F0B50A46002300240021002500F00046C9
:100F7000B6F1004F02D11D4EF16901E01B4E7168C0
:100F8000C0F3034583B200F44016B6F5401F08D104
:100F900021F07061154E766826F07066134F7E6002
:100FA00012E000F48016B6F5801F06D1032606FA7B
:100FB00005F4A14341F0706106E0460D360103FAE5
:100FC00006F6B14341F0706122B1460D360103FAD5
:100FD00006F6314300F00046B6F1004F02D1034E51
:100FE000F16101E0014E7160F0BD000000000140C0
:100FF000416170470161704710B5074800F042FF3A
:1010000000B2064908800021034801F073F8034844
:10101000B0F9000010BD000000080040960000205C
:1010200010B5074800F02EFF00B2064908800021E5
:10103000034801F05FF80348B0F9000010BD00005C
:10104000000400409800002000BFFEE710B50246F3
:101050001046884201DD012300E000234C42844217
:1010600001DD012400E0002423433BB1002802DA23
:101070004FF0FF3300E001234B4318B210BD2DE9C0
:10108000FC4104460D4616466B4606224321682065
:1010900000F0E7F90746BFB99DF801009DF8001080
:1010A00040EA012000B220809DF803009DF8021064
:1010B00040EA012000B228809DF805009DF8041048
:1010C00040EA012000B230803846BDE8FC810000D3
:1010D00010B500200E4908600E48006820F47040EA
:1010E0000C4908600846006840F440500860002041
:1010F0000949C1F8AC0100F011F801200449086069
:1011000000F00CF800200449C1F8A80110BD00004F
:10111000A8812142040C01400080214210B5022028
:1011200002F0C2F810BD000008B50121082000F04F
:1011300053FB4FF44060ADF8000010208DF8030021
:1011400003208DF8020069460448FFF77DFE4FF446
:1011500040610248FFF74EFF08BD0000000C01404F
:1011600010B500200E4908600E48006820F4704059
:101170000C4908600846006840F4405008600120AF
:101180000949C1F8AC01FFF7C9FF01200449086013
:10119000FFF7C4FF00200449C1F8A80110BD0000FA
:1011A000A8812142040C01400080214270B505460F
:1011B00000241648006820F470401449086008466E
:1011C000006840F400400860002614E00020104948
:1011D0000860FFF7A3FF01200E49C1F8A8016006CF
:1011E000040E0B487C38006808B1601CC4B2FFF7DD
:1011F00095FF701CC6B2082EE8DB15B9FFF7B0FFEB
:1012000001E0FFF765FF204670BD0000040C0140BF
:10121000A88121420080214270B50446124800682E
:1012200020F47040104908600846006840F44050BF
:10123000086000200D490860002512E0E0090B4914
:10124000091D08606006040E01200949C1F8A801C3
:10125000FFF764FF002005490860FFF75FFF681C87
:10126000C5B2082DEADB70BD040C0140A881214203
:101270000080214210B50E48006820F470400C49EF
:1012800008600846006840F44050086001200949A1
:1012900008600949C1F8A801FFF740FF002005498F
:1012A0000860FFF73BFF00200349C1F8A80110BD0B
:1012B000040C0140AC8121420080214210B50E484F
:1012C000006820F470400C4908600846006840F44B
:1012D000405008600020094908600949C1F8AC0184
:1012E000FFF71CFF0120054908600549C1F8AC0162
:1012F000FFF714FF10BD0000040C0140A88121423B
:101300000080214210B500241448006820F4704089
:10131000124908600846006840F400400860012057
:101320000F490860FFF7FAFE01200E49C1F8A80135
:10133000FFF7F4FE07E0601CC4B2FA2C03DDFFF7F0
:10134000BDFF012010BD0648803800680028F2D19A
:101350000349091F086000BFF4E70000040C0140C6
:10136000AC8121420080214238B50121084600F0BD
:1013700033FA0121042000F02FFA4FF40040ADF8B9
:10138000000010208DF8030003208DF8020069464C
:101390002248FFF759FD01212148FFF7E1FD002018
:1013A00020490860FFF7C0FE80216B2000F0DDF8C7
:1013B000642001F053FF00216B2000F0D6F80320D9
:1013C00000F091F8002000F086F8322000F0B0F82C
:1013D0000021382000F0C9F800216A2000F0C5F88B
:1013E0000021232000F0C1F88021372000F0BDF853
:1013F000752000F019F80446682C0BD101216B20F0
:1014000000F0B3F800216C2000F0AFF8322000F0BB
:101410008FF801E0012038BD0020FCE70008014002
:1014200000023000BC01214270B50446FFF722FFE4
:10143000D020FFF7F1FEFFF765FF2046FFF7ECFE37
:10144000FFF760FFFFF716FFD120FFF7E5FEFFF77C
:1014500059FF0020FFF7AAFE0546FFF72FFF284699
:1014600070BD2DE9F04106460F4614461D46FFF7B4
:1014700001FF002141EA4601C8B2FFF7CDFEFFF7A8
:1014800041FF20B1FFF71AFF0120BDE8F081384687
:10149000FFF7C2FEFFF736FFFFF7ECFE012101EB7D
:1014A0004601C8B2FFF7B8FEFFF72CFF0DE0012C94
:1014B00004D10020FFF77AFE287003E00120FFF737
:1014C00075FE2870601EC4B26D1C002CEFD1FFF7B2
:1014D000F5FE0020D9E710B50446E006010E1C20F9
:1014E00000F043F810BD10B50446E006010E1B20C5
:1014F00000F03BF810BD70B504460025BC2C01DBA4
:10150000012510E0622C01DB02250CE02A2C01DB16
:10151000032508E0142C01DB042504E00A2C01DB80
:10152000052500E0062529461A2000F01EF870BDAA
:1015300070B50446B4F57A7F01DD4FF47A74042C5B
:1015400000DA04244FF47A7090FBF4F0401EC5B228
:101550002946192000F009F80546264604EBD67105
:10156000C1F34F00FFF7C7FF70BD70B505460C46CD
:10157000FFF780FED020FFF74FFEFFF7C3FE18B144
:10158000FFF79CFE012070BD2846FFF745FEFFF7E0
:10159000B9FE2046FFF740FEFFF7B4FE18B1FFF793
:1015A0008DFE0120EFE7FFF789FE0020EBE72DE934
:1015B000F04105460E4617469846FFF75BFE0021B0
:1015C00041EA4501C8B2FFF727FEFFF79BFE20B1B5
:1015D000FFF774FE0120BDE8F0813046FFF71CFEE6
:1015E000FFF790FE00240CE018F80400FFF714FE4B
:1015F000FFF788FE18B1FFF761FE0120EBE7601CE2
:10160000C4B2BC42F0DBFFF759FE0020E3E700BFA5
:10161000FEE7704770B5002100230F22C47804B3A1
:10162000154C246804F4E064C4F5E064210AC1F1B7
:101630000403CA40447804FA03F184781440214337
:1016400009010E4C0678A155047804F01F05012409
:10165000AC4005786D11AD0005F1E025C5F80041FD
:1016600009E0047804F01F050124AC40044D06781D
:10167000761145F8264070BD0CED00E000E400E076
:1016800080E100E002490143024A11607047000016
:101690000000FA050CED00E010B500200B490860D1
:1016A0006FF04F00C8600A4888600A480862086AFC
:1016B0000949FEF713FE0549C86100208862C86227
:1016C000086148614863886310BD0000E80000209D
:1016D000000070C30000FAC40000484300B589B0A0
:1016E0000121C80200F078F801210C2000F074F804
:1016F00018208DF823004001ADF8200003208DF85C
:10170000220008A92948FFF79FFB10208DF823002D
:101710003320ADF8200033212448FFF769FC032073
:101720008DF8220008A92148FFF78EFB204800F021
:1017300025FC0020ADF81A00ADF8160041F61F4058
:10174000ADF818000920ADF8140000208DF81C0039
:1017500005A9174800F0FCFC01A800F0BDFC6020C2
:10176000ADF804000020ADF80C000120ADF8060033
:101770000020ADF80A0001A90D4800F005FC01A900
:101780000B4800F057FC0121094800F04BFB0121F8
:10179000074800F03BFB0821054800F041FC01210F
:1017A000034800F021FB09B000BD00000008014023
:1017B000002C01407047000029B1064AD26902435B
:1017C000044BDA6104E0034AD2698243014BDA61D7
:1017D000704700000010024029B1064A9269024396
:1017E000044B9A6104E0034A92698243014B9A6177
:1017F000704700000010024030B500210022002494
:1018000000232D4D6D6805F00C0121B1042905D090
:10181000082923D105E0294D056022E0274D056008
:101820001FE0254D6D6805F47012234D6D6805F4B9
:101830008034022505EB92421CB9214D55430560C9
:101840000BE01D4D6D6805F400351DB11C4D554371
:10185000056002E0194D5543056002E0174D056033
:1018600000BF00BF144D6D6805F0F0010909154D6A
:101870006B5C0568DD4045600F4D6D6805F4E06107
:10188000090A104D6B5C4568DD4085600A4D6D6846
:1018900005F46051C90A0B4D6B5C4568DD40C560BD
:1018A000054D6D6805F44041890B074D6B5CC568BB
:1018B000B5FBF3F5056130BD0010024000127A005F
:1018C00000093D00140000202400002070470000A3
:1018D00000B587B001214804FFF76EFF0121042005
:1018E000FFF77AFF18208DF81B000420ADF81800D0
:1018F00003208DF81A0006A92148FFF7A5FA482011
:101900008DF81B000820ADF8180003208DF81A0090
:1019100006A91B48FFF798FA4FF4E1300290002027
:10192000ADF814000C20ADF812000020ADF8100046
:10193000ADF80E00ADF80C0002A9124800F04EFD03
:10194000012240F225510F4800F023FD4FF4A06022
:10195000FFF798FE26208DF8040001208DF807007F
:1019600002208DF8050001208DF8060001A8FFF780
:1019700051FE0121034800F0D6FC07B000BD000075
:10198000000801400044004010B500F001F810BD0F
:101990000CB50020019000903348006840F480307E
:1019A0003149086000BF3048006800F40030009002
:1019B0000198401C0190009818B90198B0F5A06FEB
:1019C000F1D12948006800F4003010B101200090E6
:1019D00001E0002000900098012843D123480068CE
:1019E00040F01000214908600846006820F003001C
:1019F00008600846006840F0020008601A48406825
:101A0000194948600846406848600846406840F404
:101A1000806048600846406820F47C1048600846B2
:101A2000406840F4E81048600846006840F0807064
:101A3000086000BF0C48006800F000700028F9D072
:101A40000948406820F0030007494860084640689C
:101A500040F00200486000BF0348406800F00C00FE
:101A60000828F9D10CBD00000010024000200240FF
:101A700070B505460C46012D18D1002C0ADA6042DB
:101A800004B220211748FFF7B5FA10211548FFF7D7
:101A9000AFFA07E010211348FFF7ACFA20211148F4
:101AA000FFF7A6FAA1B2104800F020FB022D18D1D2
:101AB000002C0ADA604204B202210A48FFF79AFABF
:101AC00001210848FFF794FA07E001210548FFF7D4
:101AD00091FA02210348FFF78BFAA1B2024800F005
:101AE00007FB70BD00080140002C0140042808D10C
:101AF0004FF0E021096941F004014FF0E02211614B
:101B000007E04FF0E021096921F004014FF0E022E5
:101B1000116170477047000010B51348006840F02D
:101B200001001149086008464068104908400E4904
:101B30004860084600680E4908400B49086008469E
:101B4000006820F4802008600846406820F4FE0009
:101B500048604FF41F008860FFF716FF4FF00060E9
:101B60000449086010BD0000001002400000FFF8AA
:101B7000FFFFF6FE08ED00E0F0B50C46154600222A
:101B80000021068C4FF6FE773E400684028B018CC6
:101B90004FF60C7632407E1C06EA03162E43324383
:101BA000104EB0420ED0104EB0420BD0B0F1804F6C
:101BB00008D00E4EB04205D00D4EB04202D00D4EB0
:101BC000B04206D14FF6FD76314044F00106314374
:101BD00005E04FF6F576314044F0010631430283CB
:101BE0000184F0BD002C014000340140000400409D
:101BF00000080040000C0040F0B50C4615460022DD
:101C000000210026078C4FF6EF7C07EA0C070784BB
:101C1000028B018C4FF6FF7707EA041640F6FF4768
:101C20003A404FF6FF7707EA03373A434FF6FF771C
:101C300007EA05273A43114FB8420ED0104FB84279
:101C40000BD0B0F1804F08D00E4FB84205D00E4FE8
:101C5000B84202D00D4FB84206D14FF6DF77394077
:101C600046F01007394305E04FF65F77394044F0FE
:101C70001007394302830184F0BD0000002C0140AD
:101C8000003401400004004000080040000C004007
:101C9000F0B50C461546002200210026078C4FF6B1
:101CA000FF6C07EA0C070784828B018C4FF6FF77E5
:101CB00007EA04264FF60C773A404FF6FF7707EA1B
:101CC00003172F433A43114FB8420ED0104FB8427A
:101CD0000BD0B0F1804F08D00E4FB84205D00E4F58
:101CE000B84202D00D4FB84206D14FF6FF573940E7
:101CF00046F48077394305E04FF2FF57394044F40A
:101D00008077394382830184F0BD0000002C0140BC
:101D1000003401400004004000080040000C004076
:101D2000F0B50C461546002200210026078C4EF621
:101D3000FF7C07EA0C070784828B018C4FF6FF7744
:101D400007EA043640F6FF473A404FF6FF7707EAC6
:101D500005273A434FF6FF7707EA03373A43114F17
:101D6000B8420ED0104FB8420BD0B0F1804F08D01F
:101D70000E4FB84205D00E4FB84202D00D4FB842B8
:101D800006D14DF6FF77394046F48057394305E0D8
:101D900047F6FF57394044F4805739438283018422
:101DA000F0BD0000002C0140003401400004004060
:101DB00000080040000C004010B50121880700F029
:101DC00064F801280BD1FFF717F905490880FFF7E0
:101DD00027F9044908800121880700F014F810BD94
:101DE0004A0000204C00002021B1028842F080020D
:101DF000028004E002884FF67F731A400280704729
:101E0000CA4302827047CA430282704721B10288E6
:101E100042F00102028004E002884FF6FE731A408D
:101E20000280704731B1B0F8442042F40042A0F87B
:101E3000442005E0B0F84420C2F30E02A0F844208C
:101E40007047F0B50C4615461E46002100220023BF
:101E50000189028B038C4FF6F877394021434FF606
:101E6000FC473A4040F201173A434FF6DD773B40DA
:101E70004FF6FF7707EA06172F433B4301810283A2
:101E80000384F0BD0146888C704730B502460020BF
:101E900000230024158A05EA0103958905EA010457
:101EA00013B10CB1012000E0002030BD70B5054633
:101EB0000C46244885420ED0234885420BD0B5F10C
:101EC000804F08D02148854205D02148854202D064
:101ED0002048854200D100E000BF208850B9238906
:101EE000A28861882846FFF747FEE188284600F06F
:101EF00003F925E0208804280AD12389A288618873
:101F00002846FFF779FEE188284600F0FEF817E042
:101F1000208808280AD12389A28861882846FFF7EB
:101F2000B7FEE188284600F0FDF809E02389A28881
:101F300061882846FFF7F4FEE188284600F0FBF8A8
:101F400070BD0000002C014000340140000400403E
:101F500000080040000C0040002101804180012168
:101F600081800021C180018170471AB183890B43B0
:101F7000838102E083898B438381704701894FF617
:101F8000F87211400181704770B5002400220023CF
:101F9000058C4FF6FE7635400584028C8388048BD1
:101FA0004FF68F752C40B51E2C400D882C43751EA6
:101FB0002A400D892A434D882A43144DA8420BD04C
:101FC000134DA84208D0134DA84205D0124DA84287
:101FD00002D0124DA84213D14FF6F7752A404D8911
:101FE0002A434FF6FB752A408D882A434FF6FF653A
:101FF0002B404FF6FF552B408D892B43CD892B432A
:1020000083800483CD888586028470BD002C0140C6
:1020100000340140004001400044014000480140BC
:102020000A460021018B4FF6F773194011430183D3
:102030007047000070B5002400220023058C4FF685
:10204000EF7635400584028C8388048B48F6FF7553
:102050002C404FF6FF452C400D884FF6FF7606EAE0
:1020600005252C434FF6DF752A400D8906EA051534
:102070002A434D8806EA05152A43154DA84202D089
:10208000144DA8421DD14FF67F752A404D894FF659
:10209000FF7606EA05152A434FF6BF752A408D885C
:1020A00006EA05152A434FF6FF352B404FF2FF7520
:1020B0002B408D8906EA85052B43CD8906EA8505E7
:1020C0002B4383800483CD880587028470BD000084
:1020D000002C0140003401400021018041808180BA
:1020E000C180018141818181C181704781867047B2
:1020F0000187704781847047028B4FF6F3731A4053
:102100000283028B0A4302837047028B4FF2FF3334
:102110001A400283028B4FF6FF7303EA01231A432E
:1021200002837047828B4FF6F3731A408283828B4F
:102130000A4382837047828B4FF2FF331A408283B7
:10214000828B4FF6FF7303EA01231A4382837047A1
:10215000002202881D4B98420ED01D4B98420BD096
:10216000B0F1804F08D01B4B984205D01A4B9842D3
:1021700002D01A4B984204D14FF68F731A404B8805
:102180001A43174B984207D0164B984204D04FF68B
:10219000FF431A40CB881A4302808B8883850B88C3
:1021A00003850A4B98420BD0094B984208D00E4B3E
:1021B000984205D00D4B984202D00D4B984201D168
:1021C0000B7A03860123838270470000002C0140B4
:1021D000003401400004004000080040000C0040B2
:1021E0000010004000140040004001400044014045
:1021F000004801401FB501210846FFF7DDFA4FF006
:102200008040FFF7BBFE0020ADF80A00ADF80600E5
:1022100040F2E730ADF8080040F2CF20ADF80400FE
:1022200000208DF80C0001A94FF08040FFF790FFCF
:1022300001218807FFF7E4FD012211469007FFF70F
:1022400094FE4FF4A060FFF71DFA1C208DF80000EB
:1022500001208DF8030002208DF801008DF80200A6
:102260006846FFF7D7F901218807FFF7CFFD1FBDAB
:1022700010B540F225511F4800F061F8012838D10F
:1022800040F225511B4800F03FF81A4800F012F9BF
:102290001949087008460078302805D117480068A9
:1022A0003230164908601CE013480078312805D107
:1022B0001348006832301249086012E00E48007876
:1022C000322805D10F48006832300E49086008E016
:1022D00009480078332804D10A480068323809498F
:1022E000086040F22551034800F00EF8014800F064
:1022F000E1F810BD004400405200002054000020CE
:10230000580000205C00002010B50022002340F699
:102310006A14A14200D100BF0A1201249440A3B262
:10232000DC43048010BD21B1828942F400528281D5
:1023300004E082894DF6FF731A408281704770B5C0
:102340000246002400230025002040F66A16B14210
:1023500000D100BFC1F3421501F01F03012606FAA8
:1023600003F3012D02D19689334006E0022D02D1FC
:10237000168A334001E0968A33400C12012606FA91
:1023800004F41688344013B10CB1012000E00020A1
:1023900070BDF0B50346002400260025002040F65D
:1023A0006A17B94200D100BF1846C1F3421401F0C8
:1023B0001F06012707FA06F5012C01D10C3004E0B5
:1023C000022C01D1103000E014301AB107682F43FD
:1023D000076002E00768AF430760F0BD2DE9F047F2
:1023E00086B005460E460024A24600BFA14600273F
:1023F000B08900B100BF2F462C8A4CF6FF70044014
:10240000F08804432C82AC894EF6F3100440B08867
:1024100031890843718908430443AC81AC8A4FF683
:10242000FF400440B0890443AC8201A8FFF7E4F9FF
:102430001F48874202D1DDF810A001E0DDF80CA0B2
:10244000A88900F4004040B10AEBCA0000EB0A1072
:1024500031684900B0FBF1F807E00AEBCA0000EB75
:102460000A1031688900B0FBF1F86420B8FBF0F085
:1024700004012009642101FB1089A88900F40040AF
:1024800040B1322000EBC900B0FBF1F000F00700D2
:10249000044308E0322000EB09106421B0FBF1F0A6
:1024A00000F00F0004432C8106B0BDE8F087000067
:1024B0000038014001468888C0F30800704700BF1B
:1024C000FEE700000FB4054B10B503A9044A0298BB
:1024D00000F09AF810BC5DF814FB0000A93E00085B
:1024E000CC000020490050EAC12018BF04204A0D4A
:1024F00018BF40F0010040F2FF72B2EB515F08BF1D
:1025000040F00200012808BF052070472DE9F04186
:102510004F1E00EBC7010446D1E9000115461E46D7
:1025200037F006020DD02A463346FDF7BCFF7F1E6A
:1025300004EBC703D3E90023FDF70EFF37F00602D3
:10254000F1D1022F25D0042F13D0062F18BFBDE8DC
:10255000F0812A463346FDF7A6FFD4E90A23FDF7AA
:10256000FBFE2A463346FDF79EFFD4E90823FDF71C
:10257000F3FE2A463346FDF796FFD4E90623FDF71E
:10258000EBFE2A463346FDF78EFFD4E90423FDF720
:10259000E3FE2A463346FDF786FFD4E90223FDF722
:1025A000DBFE2A463346FDF77EFFD4E90023BDE873
:1025B000F041FDF7D1BE0122FEF7D2B9FDF7CCBE46
:1025C0000022134610461146FDF7DFBF024A0020E5
:1025D0001107FEF7C5B9000001FDFFFF02E008C8C2
:1025E000121F08C1002AFAD170477047002001E08D
:1025F00001C1121F002AFBD1704700000149086089
:1026000070470000D40000202DE9FF4F8DB00F4629
:102610000546002606E025280BD0DDE90F1290477D
:102620006D1C761C28780028F5D111B03046BDE825
:10263000F08F0024A246A1460122E94900E00443AC
:1026400015F8013F203B02FA03F00842F7D1287841
:102650002A2810D06FF02F022878A0F13001092924
:1026600014D80AEB8A0102EB410144F0020400EBAA
:10267000010A6D1CF0E701CF5FEA000A03D544F4BC
:102680000054CAF1000A44F002046D1C28782E2878
:1026900017D115F8010F44F004042A280ED06FF06A
:1026A0002F022878A0F1300109290AD809EB890105
:1026B00002EB410100EB01096D1CF2E757F8049BA6
:1026C0006D1C28786C280FD006DC4C2817D06828A1
:1026D0000DD06A2814D104E0742810D07A280FD1C4
:1026E0000DE044F400140AE044F4801401E044F4E2
:1026F00040146978814202D104F580146D1C6D1C70
:1027000028786E281ED00CDC632830D004DC00282A
:102710008BD0582811D19FE0642867D069280CD14C
:1027200064E073282DD004DC6F2872D0702804D1A7
:1027300094E075286ED078286DD0DDE90F129047AF
:10274000761C4BE1C4F30250022806D0032809D0BE
:10275000042801CF09D0066040E101CFF117C0E99C
:1027600000613BE101CF068038E1067036E117F8E1
:10277000040B8DF8000000208DF80100EB460120CD
:1027800003E057F804BB4FF0FF3061074FF0000142
:1027900002D40DE008F10101884649450FDA804571
:1027A000F8DB1BF808100029F4D108E008F101015A
:1027B00088468142FADB1BF808100029F6D1DDE9D2
:1027C0000F23AAEB08008146214600F031F930447E
:1027D00000EB080604E0DDE90F121BF8010B90473F
:1027E000B8F10108F7D221464846F2E00A21C4F3C5
:1027F00002524FF0000B0891022A04D001CFC117FA
:10280000032A09D00AE0FF1D27F00707F7E80201B5
:1028100008E02CE01EE01FE000B2C117042A01D13D
:1028200040B2C117021E71F1000206DA0023D0EB9C
:10283000030063EB01012D2202E0220504D52B22C7
:102840008DF82420012203E0E20701D02022F7E7DF
:10285000904653E00A210BE0102109E010214FF0CF
:10286000000B44F004044FF00809089103E008212C
:102870004FF0000B0891C4F30252022A04D001CF9A
:102880000021032A06D006E0FF1D27F00707F7E81E
:10289000020103E080B2042A00D1C0B24FF0000868
:1028A00022072BD52A78702A07D0DDF820C08CF0BB
:1028B000100C5CEA0B0C05D00EE040228DF82420B1
:1028C000012208E050EA010306D030238DF82430BD
:1028D0008DF8252002229046089B83F0080353EAD6
:1028E0000B030BD150EA010201D1620706D5302259
:1028F0008DF824204FF00108A9F101092A78582AFF
:1029000004D038A20B9208AA0A920BE03AA2F9E787
:102910005B46089AFDF73EFF0B9B9B5C0A9A521E92
:102920000A92137050EA0102F2D10A98ADEB00004E
:1029300000F1200B600702D524F4803401E04FF051
:102940000109D94502DDA9EB0B0000E0002000EBF6
:102950000B0141440890AAEB010AE00306D4DDE92B
:102960000F232146504600F063F806444FF000095B
:1029700008E009A911F80900DDE90F12904709F1F3
:102980000109761CC145F4DBE0030CD5DDE90F231A
:102990002146504600F04CF8064404E0DDE90F12F1
:1029A00030209047761C0899481E08900029F5DCD5
:1029B00008E00A980A990078491C0A91DDE90F128B
:1029C0009047761CBBF10001ABF1010BF1DC214615
:1029D0005046DDE90F2300F019F806446D1C21E68E
:1029E00009280100303132333435363738396162E5
:1029F00063646566000000003031323334353637A9
:102A00003839414243444546000000002DE9F04179
:102A1000044600251E461746880404D405E03946BE
:102A20002020B0476D1C641EF9D52846BDE8F08112
:102A30002DE9F041044600251E469046C80301D505
:102A4000302700E02027880404D505E041463846B9
:102A5000B0476D1C641EF9D52846BDE8F081000022
:102A60002DE9FE4F06460F460025684601F02AFA7A
:102A7000002442E056F8240057F82410A0EB010A85
:102A8000BAF1000F01DB514601E0CAF1000108462E
:102A9000FDF7EAFD83464FF08F41FDF71FFC8046AE
:102AA0005DF824000021FDF761FE16D05DF82410CA
:102AB0004046FDF713FC82464FF07E51FDF7D6FBF2
:102AC000814629F0004A0F48416A5046FDF758FEFA
:102AD00012D20120A04005430EE00A48C1694046D9
:102AE000FDF744FE05D30748016A4046FDF748FE5E
:102AF00002D20120A0400543641C032CBADB284607
:102B0000BDE8FE8F485B00082DE9F04D8D4F21F0A8
:102B1000004A86B005460C46BA452ADBAAEB0700F8
:102B200028430AD08848824501DC1AD1CDB106B0CD
:102B30002846BDE8F04DFFF73EBD844A844B284649
:102B4000FDF7B1FC07460E46824A834B28462146D4
:102B5000FDF7A9FC06B03A463346BDE8F04DFDF757
:102B6000FBBB0120FFF74AFD06B0BDE8F04DFFF7C3
:102B700027BD7A48824542DABAF1795F0BDA2846F6
:102B8000FFF7B0FC042808BFFFF720FD284606B079
:102B90002146BDE8F08D2A460B461046FDF783FC22
:102BA000834602466E480E460B4606217844FFF7E0
:102BB000ADFC5A463346FDF776FC804669488A46A6
:102BC0005A46334604217844FFF7A0FC5A46334660
:102BD000FDF769FC00223B46FDF7BEFB02460B46B3
:102BE00040465146FDF7D1FC2A462346FDF75BFCE3
:102BF00006B02A462346BDE8F04DFDF7ADBB28469A
:102C000024F0004100223D463B46FDF749FC4FF0D1
:102C1000FF32FDF7A5FE0646024653480F460B4617
:102C200006217844FFF772FC32463B46FDF73BFC39
:102C3000CDE900014D4832463B4604217844FFF778
:102C400065FC32463B46FDF72EFC00222B46FDF785
:102C500083FB834602913046394602F069FE804686
:102C600043480D46504517DCDDE900015A46029BFA
:102C7000FDF78BFC42462B46FDF715FC42462B46E2
:102C8000FDF76AFB0122FDF76BFE304A304BFDF782
:102C900004FC304A304B4CE04FF0000A52460B46E1
:102CA0004046FDF759FBCDE9031052462B4610462E
:102CB0001946FDF7F8FB32463B46FDF7F1FBDDE92F
:102CC0000332FDF762FC06460F46DDE900015A4675
:102CD000029BFDF75AFC834600910122304639469B
:102CE000FDF73EFE194A1A4BFDF7DAFB06460F4682
:102CF000012240462946FDF733FE5A46009BFDF768
:102D0000D2FB32463B46FDF7C8FB06460F46012282
:102D100050462946FDF724FE0E4DDFF858802A461E
:102D20004346FDF7BDFB32463B46FDF7B9FB2A465D
:102D30004346FDF7B5FB002CD8BF81F0004106B03B
:102D4000BDE8F08D0000F03F0000F07F075C143319
:102D500026A6913C182D4454FB21F93F0000E03F8A
:102D6000B83B0000CE3B0000423B0000583B000057
:102D70003333EF3FFB21E93F2DE9F84F04460D4681
:102D800021F0004000917349814211DC7249884270
:102D900001DC06D12CB120462946BDE8F84FFFF7EB
:102DA0000ABC6E48002DCCBF6D496E49BDE8F88F56
:102DB0006D49814211DD6D498142D8BF4FF0FF3628
:102DC0006DDD20462946FFF78DFB042808BFFFF77D
:102DD000FDFB20462946BDE8F88F6549654F25F083
:102DE0000045814233DD6449814219DD00263246C7
:102DF0004FF0804320462946FDF7AEFA80468A46CA
:102E0000012220462946FDF7ABFD00223B46FDF797
:102E100044FB42465346FDF7B8FB04460D463EE0F0
:102E200001260022BA463B4620462946FDF794FA81
:102E300080460F460022534620462946FDF72DFBCB
:102E400042463B46FDF7A1FB04460D4627E04B49B1
:102E500081421BDDDFF828A10226002253462046CE
:102E60002946FDF720FB00223B46FDF775FA804618
:102E70000F460022534620462946FDF70EFB4246E8
:102E80003B46FDF782FB04460D4608E0032622463A
:102E90002B4600203B49FDF778FB04460D462246B1
:102EA0002B4610461946FDF7FEFA8B46824602462F
:102EB0000B46FDF7F8FA07460246334888460B46AC
:102EC00006217844FFF722FB52465B46FDF7EBFAFA
:102ED00082462E488B463A46434605217844FFF702
:102EE00015FB3A464346FDF7DEFA02460B46002E36
:102EF000504659460CDAFDF72FFA22462B46FDF7CD
:102F0000D2FA01B022462B46BDE8F04FFDF7C8BA11
:102F1000FDF722FA22462B46FDF7C5FA1C4A7A44F1
:102F200002EBC603D3E90023FDF7B7FA22462B468E
:102F3000FDF7B3FA174A7A4402EBC603D3E900233C
:102F4000FDF7AEFA009A002AB8BF81F00041BDE853
:102F5000F88F0000000010440000F07F182D44544A
:102F6000FB21F93FFB21F9BF0000DC3F0000203EC0
:102F70000000F33F0000F03F0000E63F0080034008
:102F80000000F83F0000F0BF5A3900001839000077
:102F9000B63800007E3800002DE9F04D9446CCF1A3
:102FA000000423F000464CEA0404594F46EAD47466
:102FB0009A46884621F00042BC4206D8454240EA83
:102FC000050442EAD474BC4204D9BDE8F04D62461F
:102FD000FFF7F4BAAAF14055A5F17F6555EA0C0454
:102FE0000BD0022404EAAA744A4DDFF82CE144EA2B
:102FF000D87452EA000B04D00CE0BDE8F04DFFF7A6
:10300000BBBE002C14BF012CBDE8F08D022C30D0CB
:10301000032C32D056EA0C0B0AD0BE4220D1BA4261
:1030200009D126F0804622F080423346114617E04F
:1030300000291ADB25E0DFF8E4B0FB44002C04BFD4
:10304000DBE90001BDE8F08D012C02BFDBE90001E6
:1030500081F00041BDE8F08D022C0AD0032C0CD089
:10306000BA4212D1B8F1000F0BDA2A482C49BDE858
:10307000F08D28462B49BDE8F08D28467146BDE805
:10308000F08D24482849BDE8F08D921B12153C2A8A
:10309000C4BF204F244E10DCBAF1000FBEBF12F1A6
:1030A0003C0F00273E4608DB6246FDF76EFA21F032
:1030B0000041FFF761FE07460E4694B1012C08BFA0
:1030C00086F000460DD0194A194B022C384631467D
:1030D00015D0FDF7E2F92A46BDE8F04D114BFDF79A
:1030E000DCB90022134638463146FDF70BFB04BF1E
:1030F0000220FFF783FA38463146BDE8F08DFDF730
:10310000CCF92A46BDE8F04D064BFDF7C9B90000E1
:103110000000F07F182D4454FB2109C01238000034
:10312000FB21F9BFFB210940FB21F93F075C143368
:1031300026A6A13C2DE9F05F04461B498869FDF7EE
:1031400093FA814618490868FDF78EFA82462146AF
:10315000FDF78FF880464946FDF736F80746FDF73C
:1031600091FA05461148B0F90000FDF77DFA834653
:103170000D4881685846FDF77FF881460C49FDF7F8
:10318000ADF880460849C96801FB05F0FDF76CFA07
:1031900082464146FDF718F80746FDF773FA0646E2
:1031A0003046BDE8F09F0000E8000020400000200D
:1031B0000000C8422DE9F0410446E07800F0C00666
:1031C000E07800F03F05607800F0010098B1EF1062
:1031D0002846E91705EB5171C910A5EBC101491C3F
:1031E00001F0FF080B48006820B10A484146026818
:1031F0003846904700BF607800F0080030B10548BD
:10320000406818B1B011034A516888470020BDE8F2
:10321000F0810000D800002010B56FF00400FEF728
:1032200065FC0A4800680A49B0FBF1F009490870DA
:103230000846007800EB4001C1EBC0104FF6FF716B
:1032400001EAC0000449088010BD00000000002011
:1032500000127A00280000202A0000200146114AAE
:1032600012884A434FF0E0235A6100229A611A46BD
:10327000126942F001021A6100BF4FF0E0221069AA
:1032800000F001021AB100F48032002AF5D04FF0AC
:10329000E022126922F001024FF0E0231A610022BD
:1032A0009A6170472A0000200146114A12784A4369
:1032B0004FF0E0235A6100229A611A46126942F0E7
:1032C00001021A6100BF4FF0E022106900F0010214
:1032D0001AB100F48032002AF5D04FF0E0221269D2
:1032E00022F001024FF0E0231A6100229A61704738
:1032F0002800002038B5044664B120208DF8000075
:1033000028208DF8010030208DF8020038208DF83B
:10331000030004E0A32204216846FCF736FF6A4656
:10332000042140F69E2002F031FA01F01BFE38BD68
:103330003EB5044602208DF80000CA208DF8010039
:10334000E3208DF8020009208DF803006A4604216D
:10335000682002F01BFAA3208DF8000004F0400062
:1033600048B1C0208DF80100C8208DF80200C220AD
:103370008DF8030006E0A3208DF801008DF802000F
:103380008DF8030004F4C07048B1C4208DF8040027
:10339000CC208DF80500C6208DF8060006E0A3209D
:1033A0008DF804008DF805008DF80600A3208DF837
:1033B00007008DF808008DF809006A460A2140F6DA
:1033C000A72002F0E3F904F0030018B120208DF8E3
:1033D000000002E0D8208DF800006A46012140F686
:1033E000B62002F0D3F904F0200018B1012000F05B
:1033F000ADF802E0002000F0A9F804F4C07008B3B2
:1034000004F4807060B1B2208DF800008B208DF83C
:103410000100B6208DF802009B208DF803000BE020
:10342000B0208DF8000080208DF80100B4208DF8C8
:10343000020090208DF803006A46042140F6A22085
:1034400002F0A4F904F0010020B3F8208DF8000088
:103450006A4601214FF40B6002F098F9FA21072027
:1034600000F02CFC072000F0F3FB012000F013FC1F
:10347000642000F0F3FC4FF4FA7000F002FDC82164
:10348000304800F0A3FB282000F0BCFB0A2000F02D
:10349000CCFB08E0D8208DF800006A4601214FF4EB
:1034A0000B6002F073F904F0020018B1D9208DF816
:1034B000000002E0D8208DF800006A46012140F2A9
:1034C0003D7002F063F904F0040018B1012000F02F
:1034D00069F802E0002000F065F804F0100018B16F
:1034E0000120FFF707FF02E00020FFF703FF44F091
:1034F00008001549488101F035FD00201249887304
:1035000004F0400018B10846807B801D887304F4E5
:10351000C07020B10C48807B801D0B49887304F07B
:10352000140020B10848807B10300749887304F0EC
:10353000030020B10448807B001D034988730020EC
:103540003EBD000009E3CA02D80000203EB5044693
:103550006CB10EA1D1E900208968CDE9002002916B
:103560006A4609214FF4976002F010F93EBD0AA2A5
:10357000D2E900109268CDE9010200916A46092162
:103580004FF4976002F002F9F0E70000B8AAB38D9B
:10359000B4980D355D000000B8AAAAAAB088C3C5CA
:1035A000C700000038B5044664B1C0208DF80000A3
:1035B000C2208DF80100C4208DF80200C6208DF8CD
:1035C000030004E08B2204216846FCF7DEFD6A4616
:1035D000042140F6982002F0D9F801F0C3FC38BD70
:1035E00010B5C8234FF48062024940F6F63001F06E
:1035F0004DFB10BD705B00082DE9F04F8DB0074604
:10360000884615469946DDE9166B00240020308077
:103610006B49887B5A4605A901F004FC18B1601E6D
:103620000DB0BDE8F08F6648807A00F014000028E5
:1036300067D09DF8140000069DF8151040EA01407F
:103640009DF8161040EA01209DF8171008432860E5
:103650009DF8180000069DF8191040EA01409DF8F9
:103660001A1040EA01209DF81B10084368609DF87D
:103670001C0000069DF81D1040EA01409DF81E1038
:1036800040EA01209DF81F100843A8609DF8200023
:1036900000069DF8211040EA01409DF8221040EA02
:1036A00001209DF823100843E86004F11000C4B223
:1036B000286800140190686800140290A86800143B
:1036C0000390E8680014049001984043029901FBBC
:1036D0000100039901FB0100049901FB010ABAF101
:1036E000706F02DBBAF1885F05DD01F03BFC002062
:1036F0003080401E94E7B6F9000040F480703080BE
:1037000000BF2F48807A00F0400020B305A9601C5C
:10371000085C095D40EA012000B2A8F8000005A994
:10372000E01C095C05AAA01C105C41EA002000B264
:10373000A8F8020005A9601D095C201D105C41EA83
:10374000002000B2A8F80400A01DC4B2B6F9000021
:1037500040F0080030801A48408900F4C07008B377
:1037600005A9601C085C095D40EA012000B23880B0
:1037700005A9E01C095C05AAA01C105C41EA002018
:1037800000B2788005A9601D095C201D105C41EA2B
:10379000002000B2B880A01DC4B2B6F9000040F00D
:1037A000700030800648807A00F0030018B105A947
:1037B0000819FFF7FFFC484600F0FAFE00202FE74B
:1037C000D800002070B588B0064601A801F0B2F814
:1037D000BDF804000021C90341EA5045C403444830
:1037E000007A00F0030056F8200005904048007A67
:1037F00000F0040010B10598404205903C48007A62
:10380000C0F3C10056F8200006903948007A00F055
:10381000200010B10698404206903548007AC0F367
:10382000811056F8200007903148008900F480701C
:1038300010B10798404207900598C117A0FB0423D8
:1038400001FB043100FB0510810041EA92700590F4
:103850000698C117A0FB042301FB043100FB0510EF
:10386000810041EA927006900798C117A0FB0423DB
:1038700001FB043100FB0510810041EA92700790C2
:103880000598000E8DF808000598000C8DF80900C9
:103890000598000A8DF80A000598C0B28DF80B0053
:1038A0000698000E8DF80C000698000C8DF80D009F
:1038B0000698000A8DF80E000698C0B28DF80F0029
:1038C0000798000E8DF810000798000C8DF8110075
:1038D0000798000A8DF812000798C0B28DF81300FF
:1038E00002AA0C214FF4257001F050FF08B070BD02
:1038F000D800002030B585B0044616A207CA02AB36
:1039000007C3C82C03DD4FF0FF3005B030BDC82021
:1039100090FBF4F0401E85B2280A8DF80000E8B252
:103920008DF801006A46022140F2162001F02EFFB8
:1039300010B14FF0FF30E8E702AA0C2140F6C12099
:1039400001F024FF10B14FF0FF30DEE7044884811E
:103950000020DAE7FEF2ABC4AAF1DFDFBBAFDFDFA6
:10396000D80000201FB504464848007A00F0030044
:1039700054F8200001904548007A00F0040010B18E
:103980000198404201904148007AC0F3C10054F8C8
:10399000200002903D48007A00F0200010B102980B
:1039A000404202903948007AC0F3811054F8200058
:1039B00003903648008900F4807010B103984042AB
:1039C00003903349019880FB0101800F40EA810098
:1039D00001902F49029880FB0110820042EA917009
:1039E00002902B49039880FB0110820042EA9170FB
:1039F00003900198000E8DF800000198000C8DF8DE
:103A000001000198000A8DF802000198C0B28DF8FB
:103A100003006A4604214FF4747001F0B7FE18B138
:103A20004FF0FF3004B010BD0298000E8DF800007A
:103A30000298000C8DF801000298000A8DF802002F
:103A40000298C0B28DF803006A4604214FF47570E5
:103A500001F09CFE10B14FF0FF30E3E70398000E39
:103A60008DF800000398000C8DF801000398000AFF
:103A70008DF802000398C0B28DF803006A46042155
:103A80004FF4767001F082FECCE70000D8000020F1
:103A900009E3CA0210B586B0044647A00068039047
:103AA00046A00068029046A00068019045A000680A
:103AB000009004F0030003A9085C8DF8140003A82B
:103AC000C4F3C101405C8DF8150003A8C4F3811153
:103AD000405C8DF8160004F0030002A9085C8DF824
:103AE000100002A8C4F3C101405C8DF8110002A8C7
:103AF000C4F38111405C8DF8120005AA032140F245
:103B0000264001F043FE18B14FF0FF3006B010BD63
:103B100004AA032140F22A4001F038FE10B14FF010
:103B2000FF30F3E7019805900098049004F004003A
:103B300058B19DF8140040F001008DF814009DF874
:103B4000100040F001008DF8100004F0200058B182
:103B50009DF8150040F001008DF815009DF811004A
:103B600040F001008DF8110004F4807058B19DF808
:103B7000160040F001008DF816009DF8120040F08C
:103B800001008DF8120005AA03214FF4886001F0AE
:103B9000FDFD10B14FF0FF30B8E704AA032140F259
:103BA000314001F0F3FD10B14FF0FF30AEE70648B1
:103BB00004810020AAE700004CCD6C000CC92C0049
:103BC0003656760026466600D8000020F8B5054631
:103BD0000E464FF47A7095FBF0F000FB06F4200ED1
:103BE0008DF80000200C8DF80100200A8DF80200ED
:103BF000E0B28DF803006A4604214FF4AE7001F084
:103C0000C5FDF8BD38B50446052094FBF0F084B23C
:103C100020128DF80000E0B28DF801006A46022102
:103C20004FF4AD7001F0B2FD38BD38B50446052043
:103C300094FBF0F084B220128DF80000E0B28DF811
:103C400001006A4602214FF4AC7001F09FFD38BDBF
:103C500038B504460020009004F0010020B19DF822
:103C6000000040F03000009004F0020020B19DF808
:103C7000000040F00C00009004F0040020B19DF81A
:103C8000000040F0030000906A4601214FF4A47048
:103C900001F07CFD38BD38B50446012C01DA012461
:103CA00002E0042C00DD0424601EC0B200906A46CD
:103CB000012140F24F1001F069FD38BD2DE9FC47AC
:103CC00006460F4606F0070010B1B7F5C86F03DDD2
:103CD0004FF0FF30BDE8FC873846FCF7CEFC81464C
:103CE0005949FCF7FBFA8046684600F0FDFD9DF857
:103CF0000000022806D0042816D0082826D0102854
:103D000048D135E04FF08D414046FCF7B5FA814689
:103D1000FCF7D1FC84B24D494046FCF7ADFA814630
:103D2000FCF7C9FC85B238E04FF08C414046FCF707
:103D3000A3FA8146FCF7BFFC84B245494046FCF734
:103D40009BFA8146FCF7B7FC85B226E04FF08B4129
:103D50004046FCF791FA8146FCF7ADFC84B23D4940
:103D60004046FCF789FA8146FCF7A5FC85B214E0D1
:103D70004FF08A414046FCF77FFA8146FCF79BFCF6
:103D800084B235494046FCF777FA8146FCF793FC4C
:103D900085B202E04FF0FF309CE700BF20128DF8A3
:103DA0000400E0B28DF8050028128DF80600E8B294
:103DB0008DF8070006F00100A0B101AA02214FF41E
:103DC000EA7001F0E3FC10B14FF0FF3082E70DF133
:103DD000060202214FF4927001F0D8FC10B14FF0AE
:103DE000FF3077E706F00200A0B101AA02214FF4EC
:103DF000EC7001F0CBFC10B14FF0FF306AE70DF131
:103E0000060202214FF4947001F0C0FC10B14FF093
:103E1000FF305FE706F00400A0B101AA02214FF4D1
:103E2000EE7001F0B3FC10B14FF0FF3052E70DF12E
:103E3000060202214FF4967001F0A8FC10B14FF079
:103E4000FF3047E7002045E70000484300004046B8
:103E50000000C045000040450000C04438B504469D
:103E6000052094FBF0F085B228128DF80000E8B22E
:103E70008DF801006A4602214FF4EF7001F086FCD4
:103E800038BD38B50446052094FBF0F085B2281201
:103E90008DF80000E8B28DF801006A4602214FF467
:103EA000ED7001F073FC38BD00BF054A128802F0C6
:103EB0004002002AF9D0C2B2014B1B1D1A80704784
:103EC000003801407CB5054628494968087801ABAF
:103ED00004220D21FDF7C5FA08B107207CBD9DF82D
:103EE0000700C0F301109DF8041001F0E00140EA62
:103EF000E1008DF800009DF80700C0F381009DF8F7
:103F0000051001F0E00140EAE1008DF801009DF8A4
:103F1000070000F003009DF8061001F0E00140EA00
:103F2000E1008DF8020000241CE01DF8040018B91F
:103F3000002045F8240013E00D4845F8240006E071
:103F400055F824000B49FCF797F945F824001DF8B3
:103F50000400401EC0B20DF804000028F0D100BFDC
:103F6000601CC4B2032CE0DB0020B7E76000002037
:103F70007B14AE3E1D5A843F2DE9F04F87B00546B5
:103F80000C46914601208DF8100000208DF811009C
:103F9000FE4A1268917CFD4A5268107804AB0222F6
:103FA000FDF705FB20B14FF0FF3007B0BDE8F08F03
:103FB000C820FFF753F900208DF81000F34A12686B
:103FC000D17BF24A5268107804AB0122FDF7EFFA78
:103FD00010B14FF0FF30E8E7EC4A12685179EB4A34
:103FE0005268107804AB0122FDF7E1FA10B14FF0EE
:103FF000FF30DAE7E54A1268917CE44A52681078AB
:1040000004AB0122FDF7D3FA10B14FF0FF30CCE73B
:10401000DE4A1268D17DDD4A5268107804AB012275
:10402000FDF7C5FA10B14FF0FF30BEE7D74A12686E
:104030001179D64A5268107804AB0122FDF7B7FA1D
:1040400010B14FF0FF30B0E70C208DF81000CF4AD0
:1040500012681179CD4A5268107804AB0122FDF73D
:10406000A6FA10B14FF0FF309FE70F20FFF7F6F8E8
:10407000C648806A407A8DF81000C44A1268917868
:10408000C24A5268107804AB0122FDF790FA10B1D1
:104090004FF0FF3089E7BD48806A007A8DF8100044
:1040A000BA4A12685178B94A5268107804AB0122B2
:1040B000FDF77DFA10B14FF0FF3076E7B9F1000F50
:1040C00007D0B248806A807A40F0E0008DF8100096
:1040D00004E0AE48806A807A8DF81000AB4A12681E
:1040E0009179AA4A5268107804AB0122FDF75FFA71
:1040F00010B14FF0FF3058E7B9F1000F07D0A348D7
:10410000806AC07A40F0E0008DF8100003E0A0481B
:10411000C07A8DF810009D4A1268D1799B4A526886
:10412000107804AB0122FDF742FA10B14FF0FF30D6
:104130003BE7B9F1000F02D0C820FFF78FF840200D
:104140008DF81000914A12681179904A52681078DF
:1041500004AB0122FDF72BFA10B14FF0FF3024E73A
:1041600078208DF81000894A12685179874A526880
:10417000107804AB0122FDF71AFA10B14FF0FF30AE
:1041800013E783498889FFF769F800208DF810004C
:104190007E4A126851797D4A5268107804AB012238
:1041A000FDF705FA10B14FF0FF30FEE6774A1268CE
:1041B000917A764A5268107804AB0222FDF751F9E1
:1041C00010B14FF0FF30F0E69DF811009DF810108F
:1041D00040EA012B0C209BFBF0F0C6B20020A86047
:1041E00068602860A06060602060824665E0674A81
:1041F0001268D17A654A5268107804AB0C22FDF738
:1042000030F910B14FF0FF30CFE69DF811009DF866
:10421000101040EA012000B2ADF808009DF813002C
:104220009DF8121040EA012000B2ADF80A009DF896
:1042300015009DF8141040EA012000B2ADF80C0002
:10424000BDF90810206808442060BDF90A106068B4
:1042500008446060BDF90C10A0680844A0609DF897
:1042600017009DF8161040EA012000B2ADF80000DA
:104270009DF819009DF8181040EA012000B2ADF831
:1042800002009DF81B009DF81A1040EA012000B2C0
:10429000ADF80400BDF90010286808442860BDF995
:1042A0000210686808446860BDF90410A8680844F2
:1042B000A8600AF1010000F0FF0AB24597DB34481C
:1042C000D0F800C02868C117090441EA104107046A
:1042D000624600233846FBF727FF32460023CDE92C
:1042E0000201FBF721FF28602948D0F800C0686868
:1042F000C117090441EA1041070462460023384609
:10430000FBF712FF32460023CDE90201FBF70CFF59
:1043100068601F48D0F800C0A868C117090441EAC6
:1043200010410704624600233846FBF7FDFE324683
:104330000023CDE90201FBF7F7FEA8601448D0F88E
:1043400004C02068C117090441EA1041070462460D
:1043500000233846FBF7E8FE32460023CDE9020190
:10436000FBF7E2FE20600A48D0F804C06068C1177D
:10437000090441EA10410704624600233846FBF76E
:10438000D3FE32460023CDE9020103E060000020A5
:10439000485B0008FBF7C8FE60601148D0F804C015
:1043A000A068C117090441EA1041070462460023CE
:1043B0003846FBF7B9FE32460023CDE90201FBF790
:1043C000B3FEA060A068002804DDA068A0F58030DE
:1043D000A06003E0A06800F58030A0600020E4E564
:1043E000485B00082DE9FC5F06460F4600253D4965
:1043F0004968087801AB03220D21FDF732F810B1AE
:104400000720BDE8FC9F9DF8040000F01F008DF818
:1044100004009DF8050000F01F008DF805009DF8D0
:10442000060000F01F008DF80600002456E056F844
:10443000240057F82410A0EB010BBBF1000F01DBA7
:10444000594601E0CBF100010846FCF70DF94FF0A9
:104450008F410090FBF742FF814601A8005D68B3E1
:1044600021490868FCF709F9834659461F48FBF7BC
:1044700035FF804604E01E494046FBF7FDFE8046BE
:1044800001A8005D401EC0B201A908550028F2D164
:1044900041464846FBF722FF83464FF07E51FBF72B
:1044A000E5FE82462AF0004B0F4881695846FCF72A
:1044B00067F912D20120A04005430EE00A480169C5
:1044C0004846FCF753F905D3074841694846FCF7CD
:1044D00057F902D20120A0400543641C032CA6DB3F
:1044E00028468EE760000020485B000800B04C457D
:1044F00054E3853F10B50446204600F00FF803460C
:10450000E01C00F00BF843EAC00083B2A01D00F0ED
:1045100005F843EA801083B2184610BD014691F9B0
:104520000020002A01DD00201EE091F90020002A71
:1045300001DA042018E091F90120002A01DD0120B0
:1045400012E091F90120002A01DA05200CE091F92E
:104550000220002A01DD022006E091F90220002A53
:1045600001DA062000E0072070470000FEF754FE45
:10457000FDF7D2FAFDF7ACF90C48FDF79BFFFCF70D
:104580007BFBFDF789F8FDF7A9F800BFFCF7ECFE0F
:104590000028FBD100BF00F057F90028FBD1FCF741
:1045A000F5FBFDF727FE00BFFEE7000000440040DA
:1045B0007047000070B50446002624F00104184836
:1045C00090F8240008B1002070BD1548807A10B919
:1045D0004FF0FF30F8E71248057C807A2040104900
:1045E00008740846007CA04202D04FF0FF3600E07D
:1045F000002614B90A48007D18B1012001F050F9D5
:1046000002E0002001F04CF93CB100F0ABFC20B11D
:10461000034805744FF0FF30D6E73046D4E700007A
:10462000600000202DE9F04F99B004460D46164673
:104630004FF07E574FF000084FF000094FF0000A8E
:1046400012A813A918AB0EAACDE9001014A916A838
:10465000FEF7D2FF18B1012019B0BDE8F08FBDF808
:104660004C0000F4807000287ED00E98FBF7FCFF11
:1046700083464FF09D41FBF731FE07460F98FBF74D
:10468000F3FF83464FF09D41FBF728FE80461098CC
:10469000FBF7EAFF83464FF09D41FBF71FFE814683
:1046A0001198FBF7E1FF83464FF09D41FBF716FEA3
:1046B000824639464FF08040FBF7DEFD49460590C3
:1046C000FBF7DAFD414607904FF04040FBF7D4FD81
:1046D00051460590FBF7D0FD06900799FBF774FD56
:1046E0008346FBF7FCFFCDE90801FEF70DFA4FF01A
:1046F0006632544BCDE90A01FBF7D5FECDE90C013A
:10470000FCF718F8206049464FF08040FBF7B4FDF5
:1047100049460290FBF7B0FD414604904FF04040FF
:10472000FBF7AAFD41460290FBF7A6FD0390049912
:10473000FBF79CFD83464FF07E51FBF745FD05904E
:10474000FBF7CDFFCDE9080139464FF08040FBF77C
:1047500093FD41460390FBF78FFD494604904FF0CF
:104760008040FBF789FD00E068E051460390FBF7CD
:1047700083FD83460499FBF727FD0590FBF7AFFF08
:10478000CDE90601DDE90823FEF706FC4FF06632AD
:104790002C4BCDE90A01FBF786FECDE90C01FBF7B6
:1047A000C9FF286051465046FBF766FD4946049014
:1047B0004846FBF761FD414603904046FBF75CFD30
:1047C000394601903846FBF757FD00900199FBF7F9
:1047D000FBFC02900399FBF749FD83460499FBF724
:1047E00045FD0590FBF77BFFCDE9080151463846B2
:1047F000FBF742FD494604904046FBF73DFD039020
:104800000499FBF7E1FC4FF080410590FBF734FD84
:104810008346FBF764FFCDE90601DDE90823FEF7D7
:10482000BBFB4FF06632074BCDE90A01FBF73BFEBD
:10483000CDE90C01FBF77EFF306001E002200BE7C1
:10484000002009E766A64C4070B50024FCF76CFC1C
:1048500000F024F9002840D1782000F02FFFC4B2E6
:104860000CB1012070BD7820FFF7A4FEC4B20CB1DA
:104870000220F7E7642000F0D3FEC4B20CB103209D
:10488000F0E7FEF7ADFEC4B20CB10420EAE715482C
:10489000FFF730FE0546FFF7FDF8C4B20CB1052066
:1048A000E0E740F27310FEF743FDC4B20CB10620FE
:1048B000D8E76420FFF71EF8C4B20CB10720D1E797
:1048C00000F0A4FF04460CB10820CBE7012000F063
:1048D000A3FDC4B21CB10920C4E70A20C2E700202E
:1048E000C0E700008C00002001461148407A30B13A
:1048F000012807D0022808D003280CD108E00220A4
:1049000008700BE00420087008E00820087005E03B
:104910001020087002E04FF0FF30704700BF0448DD
:10492000C07C18B108784006000E08700020F4E73B
:104930006000002001461348407A30B1012808D0B9
:1049400002280AD0032810D10BE04FF480400880E1
:104950000EE041F69C7008800AE04FF48050088019
:1049600006E04FF40060088002E04FF0FF3070472F
:1049700000BF0448C07C10B10888401008800020A7
:10498000F5E700006000002001460248007C087046
:10499000002070476000002001460F48007A30B1C7
:1049A000012807D0022809D003280FD10AE0FA20F5
:1049B00008800EE04FF4FA7008800AE04FF47A7035
:1049C000088006E04FF4FA60088002E000200880CA
:1049D00000BF00BF002070476000002001460E4865
:1049E000007A30B1012807D0022808D003280CD162
:1049F00008E00A4808600BE00948086008E0094838
:104A0000086005E00848086002E04FF0FF3070479A
:104A100000BF0020FBE7000060000020000003430F
:104A2000000083423333034233338341014612484B
:104A3000C07A082817D2DFE800F01704070A0D1023
:104A40001318BC20088013E06220088010E02A20A0
:104A500008800DE0142008800AE00A20088007E0A2
:104A60000520088004E000BF00BF0020088000BFD0
:104A700000BF00207047000060000020014606488B
:104A800090F8240010B14FF0FF3070470248C08901
:104A900008800020F9E70000600000201CB580209D
:104AA0008DF80000654A1268917C644A526810785B
:104AB0006B460122FCF77BFD10B14FF0FF301CBDAF
:104AC0006420FEF7CBFB00208DF800005B4A1268E3
:104AD000917C5A4A526810786B460122FCF767FDB8
:104AE00010B14FF0FF30EAE7544A1268917D534A03
:104AF000526810786B460622FCF7B3FC10B14FF0F9
:104B0000FF30DCE79DF80500C007400F9DF803105B
:104B100001F0010140EA41009DF8011001F001019E
:104B200040EA010494B1012C03D101214348C1742E
:104B300031E0022C03D100214048C1742BE0214612
:104B40003FA0FDF7BFFC4FF0FF30B8E73B4A1268CB
:104B5000D1783A4A526810786B460122FCF781FC02
:104B600010B14FF0FF30AAE79DF8000000F00F04ED
:104B70002CB93D48FDF7A6FC4FF0FF309FE7042C11
:104B800006D13AA0FDF79EFC01212C48C17402E039
:104B900000212A48C174FF2128488172FF2027493B
:104BA0000872FF2125484172C1724FF6FF71C18121
:104BB000FF21017481740121017380F8221000210A
:104BC00080F82310417501751630016041608160E5
:104BD000163880F8241080F82510C1844FF4FA604C
:104BE00000F062FC10B14FF0FF3068E7022000F0E7
:104BF0002BFB10B14FF0FF3061E72A2000F0CEFC14
:104C000010B14FF0FF305AE7322000F009FD10B12B
:104C10004FF0FF3053E70020FFF7CCFC10B14FF00E
:104C2000FF304CE7002000F051FB10B14FF0FF3097
:104C300045E7002000F042FD002040E76000002032
:104C4000556E737570706F7274656420736F6674DF
:104C5000776172652070726F647563742072657617
:104C60002025642E0A0000005868000848616C6620
:104C70002073656E736974697669747920706172E6
:104C80007420666F756E642E0A0000002DE9F043F3
:104C900085B005460E4690469946294890F825006D
:104CA00020B14FF0FF3005B0BDE8F08316B94FF0EA
:104CB000FF30F8E7002423E0281B102801DD102036
:104CC00000E0281B87B232193946204600F05EFD0D
:104CD00010B14FF0FF30E6E701AA3946204600F058
:104CE00001F910B14FF0FF30DDE730193A4601A964
:104CF000FBF75DFA10B16FF00100D4E7E01984B260
:104D0000AC42D9DB4FEA28208DF8000008F0FF0004
:104D10008DF801000A4A1268917E094A526810789B
:104D20006B460222FCF743FC10B14FF0FF30BAE7AC
:104D30000121034880F82510A0F826900020B2E752
:104D40006000002038B50446282C02DD4FF0FF300B
:104D500038BDDCB9002000F0EBFB00208DF800002E
:104D600007208DF801002E4A1268917C2C4A526867
:104D700010786B460222FCF71AFC10B14FF0FF309E
:104D8000E6E70021264801750020E1E7012000F058
:104D9000CFFB20208DF80000012C06D100208DF8DB
:104DA0000100052000F0FAFB17E0052C06DC0120CD
:104DB0008DF80100052000F0F1FB0EE0142C06DC5C
:104DC00002208DF801000A2000F0E8FB05E0032036
:104DD0008DF80100142000F0E1FB9DF8010007218F
:104DE00001EB8010C0B28DF801000D4A1268917C71
:104DF0000B4A526810786B460222FCF7D8FB10B1C0
:104E00004FF0FF30A4E708210548817200210173AB
:104E1000012101750020FFF7CDFB002098E700007D
:104E200060000020F8B504460F4616462C4890F85E
:104E3000240010B94FF0FF30F8BD2948807A10B92E
:104E40004FF0FF30F8E7264A1268917A244A5268F8
:104E500010786B460222FCF704FB10B14FF0FF30D4
:104E6000EAE79DF801009DF8001040EA0125A542FF
:104E700003DA00203070401EDEE7194840684088A1
:104E8000B5EB600F17DD164A1268517C144A526860
:104E900010786B460122FCF7E4FA10B14FF0FF30B6
:104EA000CAE79DF8000000F0100020B100F05AF8A9
:104EB0006FF00100C0E7E2B2094B1B68D97A084BDA
:104EC0005B6818783B46FCF7CCFA10B14FF0FF3026
:104ED000B2E795FBF4F0401E30700020ACE7000014
:104EE00060000020F8B504460D46164616B94FF08E
:104EF000FF30F8BD1A48807A10B94FF0FF30F8E75C
:104F000020128DF80000E0B28DF801009DF801003C
:104F10002844134949684989884202DD4FF0FF302F
:104F2000E7E70F4A1268117E0D4A526810786B4607
:104F30000222FCF73CFB10B14FF0FF30D9E7EAB298
:104F4000074B1B68597D064B5B6818783346FCF7A6
:104F500088FA10B14FF0FF30CBE70020C9E700001E
:104F60006000002008B57048807A10B94FF0FF301B
:104F700008BD002000906C4A1268D17B6A4A5268D2
:104F800010786B460122FCF712FB10B14FF0FF3096
:104F9000EEE7654A12685179634A526810786B46A9
:104FA0000122FCF704FB10B14FF0FF30E0E75E4A4E
:104FB000126811795C4A526810786B460122FCF73E
:104FC000F6FA10B14FF0FF30D2E7574890F82400BE
:104FD000002853D00C200090534A12681179524A8D
:104FE000526810786B460122FCF7E1FA10B14FF0DD
:104FF000FF30BDE73220FEF731F9C02000904A486B
:10500000807A00F0010020B19DF8000040F02000FF
:105010000090454A12681179434A526810786B46ED
:105020000122FCF7C4FA10B14FF0FF30A0E73E4870
:10503000407C10B10220009001E0002000903A4A2C
:105040001268D17B384A526810786B460122FCF70F
:10505000AEFA10B14FF0FF308AE700200090324ADC
:1050600012685179304A526810786B460122FCF779
:105070009EFA002855D04FF0FF3079E704200090C9
:10508000294A12681179284A526810786B46012221
:10509000FCF78DFA10B14FF0FF3069E72248807CB1
:1050A00020B92148807A00F0010010B9402000901A
:1050B00001E0602000901C4A126811791A4A526877
:1050C00010786B460122FCF772FA10B14FF0FF30F6
:1050D0004EE73220FEF7C2F81348407C10B10120A1
:1050E000009001E0002000900F4A1268D17B0E4A28
:1050F000526810786B460122FCF759FA10B14FF054
:10510000FF3035E7084A12685179074A526810782B
:10511000054B10330122FCF74AFA10B14FF0FF3073
:1051200026E7002024E70000600000202DE9F04F72
:105130008DB083460F4602200C90424890F8240020
:1051400020B1002000F068F9012600E0002603A845
:10515000FFF722FC05A8FFF7C7FB01A8FFF766FCD5
:1051600002A8FFF78BFC374890F80AA004A8FFF7C5
:105170000BFC002407E0002239465846FEF7FCFEEF
:1051800000B902E0641C022CF5DB00BF022C01D147
:10519000002528E0002407E0012206A909A8FEF75F
:1051A000EBFE00B902E0641C022CF5DB00BF022C10
:1051B00001D1002517E006A93846FDF751FC00F0A3
:1051C000FF0809A95846FFF70DF900F0FF0900256F
:1051D000B9F1000F01D145F00105B8F1000F01D17F
:1051E00045F0020500BFFF2016490872FF2115484F
:1051F0004172C1724FF6FF71C181FF21817201744A
:1052000001210173BDF80C0000F04EF99DF8140067
:1052100000F01AF8BDF8040000F0C0F9BDF808006D
:1052200000F0FEF9504600F049FA9DF81000FFF733
:10523000C1F916B1012000F0EFF828460DB0BDE825
:10524000F08F00006000002038B504461E48807AC8
:1052500010B94FF0FF3038BD022C06D0042C07D017
:10526000082C08D0102C0CD108E0002000900BE096
:105270000820009008E01020009005E01820009021
:1052800002E04FF0FF30E6E700BF0F48407A9DF89C
:105290000010B0EBE10F01D10020DCE70A4A1268F0
:1052A000D179094A526810786B460122FCF77FF9E0
:1052B00010B14FF0FF30CEE79DF80000C11002485A
:1052C00041720020C7E700006000002038B50446A6
:1052D0005048807CA04201D1002038BD002C46D02F
:1052E0004C4A126811794B4A526810786B46012279
:1052F000FCF7B7F810B14FF0FF30EEE79DF8000073
:1053000020F020000090434A12681179414A526807
:1053100010786B460122FCF74AF910B14FF0FF30CC
:10532000DBE70320FDF79AFF02200090394890F850
:10533000220020B19DF8000040F080000090354828
:1053400090F8230020B19DF8000040F0300000905C
:10535000304A1268117D2F4A526810786B4601223C
:10536000FCF725F9002851D04FF0FF30B5E7294A66
:1053700012681179274A526810786B460122FCF7AF
:1053800070F810B14FF0FF30A7E72248807A00F0A4
:10539000010028B19DF8000040F02000009004E0DA
:1053A0009DF8000020F0200000901A4A1268117940
:1053B000184A526810786B460122FCF7F8F810B1D1
:1053C0004FF0FF3089E70320FDF748FF114890F8C0
:1053D000220010B18020009001E0002000900D48D4
:1053E00090F8230020B19DF8000040F030000090BC
:1053F000084A1268117D074A526810786B460122EC
:10540000FCF7D5F810B14FF0FF3066E7014884741F
:10541000002062E76000002038B50446214890F87B
:105420002400A04201D1002038BD24B31D4890F8CB
:10543000250010B94FF0FF30F6E7002000F030FAF9
:105440000020FFF743FF1749C88C00F0E9F800205F
:1054500000901449496808786B4601222321FCF723
:10546000A6F801210F4880F82410012000F018FA56
:10547000FFF778FD13E0002000F012FA0948007CE5
:1054800000900849496808786B4601222321FCF7FF
:105490008EF80021034880F82410FFF763FD0020F8
:1054A000C2E700006000002038B504461F48807A3B
:1054B00010B94FF0FF3038BDFA2C09D0B4F5FA7F9F
:1054C00009D0B4F57A7F09D0B4F5FA6F0CD108E0B1
:1054D000002000900BE00820009008E010200090D1
:1054E00005E01820009002E04FF0FF30E3E700BF36
:1054F0000E48007A9DF80010B0EBE10F01D10020BA
:10550000D9E70A4A12689179084A526810786B46BE
:105510000122FCF74CF810B14FF0FF30CBE79DF8BB
:105520000000C010014908720020C4E7600000209C
:1055300038B50446184890F82300A04201D1002055
:1055400038BD14B13020009001E0002000901248D6
:10555000807C20B19DF8000040F0020000900E48D1
:1055600090F8220020B19DF8000040F080000090EB
:10557000094A1268117D084A526810786B46012268
:10558000FCF715F810B14FF0FF30D9E7024880F86A
:1055900023400020D4E700006000002038B5044616
:1055A0001E48807A10B94FF0FF3038BDBC2C02DBAA
:1055B0000120009015E0622C02DB0220009010E038
:1055C0002A2C02DB032000900BE0142C02DB0420C9
:1055D000009006E00A2C02DB0520009001E0062086
:1055E00000900E48C07A9DF80010884201D100203A
:1055F000DBE70A4A12689178084A526810786B46CD
:105600000122FBF7D4FF10B14FF0FF30CDE79DF83A
:1056100000100248C1720020C7E7000060000020AF
:1056200038B504462448807A10B94FF0FF3038BDB1
:10563000214890F8240010B14FF0FF30F7E71E48E2
:10564000007D50B134B1282C04DCE0B2FFF77AFBC6
:105650000020ECE70020FFF775FB042C01DA04249E
:1056600004E0B4F57A7F01DD4FF47A744FF47A7078
:1056700090FBF4F0401EC0B200900F4A12685178BF
:105680000D4A526810786B460122FBF790FF10B16B
:105690004FF0FF30CBE79DF80000401C4FF47A71CB
:1056A00091FBF0F081B20448C1810146C9894810DC
:1056B000FFF774FF0020BAE76000002038B5044609
:1056C00004F0700010B10120009005E014B100203A
:1056D000009001E0402000902B4A1268917C2A4AF9
:1056E000526810786B460122FBF761FF20B1002160
:1056F00025488172481E38BD9DF8000020F0400109
:10570000214801730020009004F0400020B99DF86A
:10571000000040F00400009004F0200020B99DF843
:10572000000040F00200009004F0100020B99DF845
:10573000000040F00100009004F0080020B99DF83E
:10574000000040F0380000900F4A1268D17C0E4AE9
:10575000526810786B460122FBF729FF20B1002127
:1057600009488172481EC6E724B1082C02D00020E7
:10577000FFF7DEFE04488472002101753220FDF738
:105780006DFD0020B7E7000060000020F8B504467A
:105790000D46164616B94FF0FF30F8BD1A48807A0C
:1057A00010B94FF0FF30F8E720128DF80000E0B29A
:1057B0008DF801009DF80100284413494968498982
:1057C000884202DD4FF0FF30E7E70F4A1268117E92
:1057D0000D4A526810786B460222FBF7E8FE10B1C2
:1057E0004FF0FF30D9E7EAB2074B1B68597D064BF3
:1057F0005B6818783346FBF7DAFE10B14FF0FF30E4
:10580000CBE70020C9E700006000002070B588B039
:1058100002A905A8FFF78AFC0446032C3ED101A883
:10582000FFF7DCF80598FAF71FFF06460199FAF72B
:1058300023FD0546FAF726FF05900698FAF714FFB0
:1058400006460199FAF718FD0546FAF71BFF069080
:105850000798FAF709FF06460199FAF70DFD054684
:10586000FAF710FF079005A8FEF77CF86846FFF7E7
:1058700061F8BDF80010029848430290BDF800108E
:10588000039848430390BDF80010049848430490DF
:1058900002A8FDF797FF002008B070BD0120FBE7CC
:1058A00038B50446214890F82400C0B114B1022054
:1058B000009001E0002000901C4A1268D17B1B4A36
:1058C000526810786B460122FBF771FE10B14FF061
:1058D000FF3038BD9DF800101448417423E0134890
:1058E000807A10B94FF0FF30F3E724B10F48407CC5
:1058F00008B10020EDE714B10120009001E0002084
:1059000000900A4A1268D17B084A526810786B46A8
:105910000122FBF74CFE10B14FF0FF30D9E79DF8A4
:105920000010024841740020D3E70000600000200E
:105930002DE9F04106460F46FBF74CF8041E0D46D4
:1059400018BF0120284320F00040C0F17F6000F123
:10595000E040C00F0ED0301C18BF0120384320F0AB
:105960000040C0F17F6000F1E040C00F04BF0120A3
:10597000FCF744FE20462946BDE8F0812DE9FF47AB
:1059800004468946924604EB09010846FAF76CFE84
:105990004149086041480068FAF7A1FE07464FF008
:1059A00066323F4BFAF77FFD0546FAF7C3FE3B49E7
:1059B000086039480068FAF792FE05464FF0333226
:1059C000384BFAF770FD0746884634480068FAF706
:1059D00086FE3A464346CDE90001FAF7BDFCCDE923
:1059E0000201FAF7A7FE2D490860084601682E4813
:1059F0000068FAF7E9FB2C4908602C4801682A483E
:105A00000068FAF733FC28490860294926480068ED
:105A1000FAF7B6FE02D226482349086025492248F3
:105A20000068FAF7A3FE02D222481F490860224804
:105A3000C1691D480068FAF71FFC05461E48016A47
:105A400016480068FAF718FC06462946FAF7BCFB28
:105A50001A4908601A495046FAF792FE04D91949C2
:105A60005046FAF783FE02D800200F490860164816
:105A70000068FAF702FE0646144910480068FAF773
:105A80002DFC07463146FAF79FFB0546FAF7FAFD6B
:105A900004B0BDE8F0870000A8000020AC000020A2
:105AA0006666E63F3333D33FB4000020B0000020E9
:105AB00000401C4600401CC6E8000020A400002056
:105AC0000000A0420000A0C25C00002000002041B5
:105AD0002DE9F04104460D46002600212046FAF744
